S01000004D6573736F6D61742E73726563CB
S11300000C9434000C9451000C9451000C94510045
S11300100C9451000C9451000C9451000C94510018
S11300200C9451000C9451000C9451000C946902EE
S11300300C9451000C9451000C9451000C945100F8
S11300400C9451000C9451000C9454030C948203AE
S11300500C9451000C9451000C9451000C945100D8
S11300600C9451000C94510011241FBECFEFD8E022
S1130070DEBFCDBF11E0A0E0B1E0E6EEFDE002C0DE
S113008005900D92A232B107D9F721E0A2E2B1E0C6
S113009001C01D92A13AB207E1F70E9414030C9427
S11300A0F1060C9400001F93CF93DF9300D000D08F
S11300B01F92CDB7DEB7FC019E012F5F3F4F85E055
S11300C0D9011D928A95E9F787B1816087B998B102
S11300D0916098B9BFEF21EE84E0B1502040804098
S11300E0E1F700C0000098B19E7F98B99FEFA0EEA1
S11300F0B0E09150A040B040E1F700C0000098B1DA
S1130100916098B997B19E7F97B925ED2A95F1F73B
S11301100000309965C08FE391E00197F1F700C0CA
S11301200000309B5FC0AFE3B1E01197F1F700C06E
S1130130000010E034C02F5F3F4F293C310518F018
S113014053C020E030E0309BF6CFB0EABA95F1F727
S1130150309B0CC047E050E0491B510921E030E0DE
S113016002C0220F331F4A95E2F7822B20E030E0D1
S113017005C02F5F3F4F293C3105C0F53099F9CFB9
S11301809F5F02C080E090E09830D8F221E030E038
S11301902C0F3D1F210F311DD9018C931F5F15308A
S11301A088F387B1816087B988B1816088B9BFEF6E
S11301B021EE84E0B15020408040E1F700C000000F
S11301C089819A813B812C81890F830F820F9D81C4
S11301D089130EC030838981DB018C9380E009C0D0
S11301E08FEF07C08EEF05C08DEF03C08FEF01C006
S11301F08BEF0F900F900F900F900F90DF91CF9196
S11302001F9108950E945300089588B1886088B9A9
S113021085E08A95F1F7000088B1877F88B9089551
S1130220CF93C82F662321F088B1806288B903C0B8
S113023088B18F7D88B988B18F7E88B98AB1806191
S11302408AB98AB180628AB98AB180648AB98AB16A
S113025080688AB98BB18F778BB98BB18F7B8BB95F
S11302608BB18F7D8BB98BB18F7E8BB9CC231CF472
S11302708BB180688BB9C6FF03C08BB180648BB926
S1130280C5FF03C08BB180628BB9C4FF03C08BB1BF
S113029080618BB90E9405018BB18F778BB98BB1CB
S11302A08F7B8BB98BB18F7D8BB98BB18F7E8BB9E3
S11302B0C3FF03C08BB180688BB9C2FF03C08BB18D
S11302C080648BB9C1FF03C08BB180628BB9C0FF5E
S11302D003C08BB180618BB90E9405018BB1806131
S11302E08BB98BB180628BB98BB180648BB98BB1C4
S11302F080688BB9CF910895882321F088B18062FA
S113030088B903C088B18F7D88B988B1806188B904
S11303108AB18F7E8AB98AB18F7D8AB98AB18F7B7F
S11303208AB98AB18F778AB988B1886088B985E03B
S11303308A95F1F700004C9902C080E001C080E189
S11303404D9980624E9980644F99806898B1977FE7
S113035098B995E09A95F1F7000098B1986098B92A
S113036095E09A95F1F700004C9981604D9982606F
S11303704E9984604F99886098B1977F98B9089591
S113038080E00E947C018823DCF385E18A95F1F703
S1130390000080E00E947C010895CF93C82F0E9442
S11303A0C00160E08C2F0E941001CF91089581E07C
S11303B00E94CD010895CF93C82F0E94C001CA3076
S11303C049F4803410F480E401C080E080580E9435
S11303D0CD0104C061E08C2F0E941001CF910895DB
S11303E0CF93DF93FC0103C00E94DB01FE01EF0108
S11303F0219680818111F8CFDF91CF910895CF9319
S1130400C82F87B1806287B987B1806187B987B106
S1130410886087B98AB180618AB98AB180628AB9F1
S11304208AB180648AB98AB180688AB98FEF99EFFA
S11304300197F1F700C000008BB180628BB98BB1DA
S113044080618BB90E9405018FE19EE40197F1F769
S113045000C000000E9405018FEF90E00197F1F7C2
S113046000C000000E9405018FEF90E00197F1F7B2
S113047000C000008BB18F7E8BB90E9405018FEF05
S113048090E00197F1F700C0000088E20E94CD01DE
S113049088E00E94CD010E94D70186E00E94CD0130
S11304A08C2F0E94CD01CF910895E1E8F0E0808186
S11304B08860808388E09DE390938900809388001E
S11304C0808185608083EFE6F0E0808182608083B4
S11304D008951F920F920FB60F9211248F9381E00B
S11304E0809322018F910F900FBE0F901F9018954B
S11304F00E94C70399278433910501F130F48630B3
S1130500910551F0C19761F008958436910521F168
S11305108137910539F1089581E08093240108958C
S113052088E09DE3909389008093880081E0809324
S113053002011092850010928400089583E294EFE2
S1130540909389008093880084E080930201109244
S1130550850010928400089581E080930101109237
S11305602301089510920101089590916A018091E8
S11305708C01292F092E000C330B3F939F93282FB6
S1130580082E000C330B3F938F9383E091E09F93ED
S11305908F938DE891E09F938F930E9407040E94AC
S11305A0D7018DE891E00E94F0018DB79EB70896BF
S11305B00FB6F8949EBF0FBE8DBF08952091000121
S11305C090916A0180918C011F922F93292F092EFB
S11305D0000C330B3F939F93282F082E000C330BF2
S11305E03F938F9380E191E09F938F938CE691E00A
S11305F09F938F930E94070482E00E94E5038CE698
S113060091E00E94FA0383E00E94E50380912301B4
S11306108F5F809323018DB79EB70A960FB6F89427
S11306209EBF0FBE8DBF08958CE00E94FF010E9403
S1130630D70187E690E00E94AC030E94550284B182
S1130640816084B978940E9478028091240188237F
S113065061F085B18E7F85B9809100018F5F8093B1
S11306600001109223011092240180912201882319
S113067051F3109222016AE671E08CE891E00E9445
S113068002018111E0CF0E94B5028091010188230B
S1130690D1F280912301833018F40E94DE02D3CF7B
S11306A085B1816085B9CFCF1F920F920FB60F929B
S11306B011242F938F939F93EF93FF938091C00006
S11306C02091C6008C71E0912701EF5FEF7190914A
S11306D02601E91739F0E0932701F0E0E65DFE4FCB
S11306E0208301C082E090912501892B809325010C
S11306F0FF91EF919F918F912F910F900FBE0F90CB
S11307001F9018951F920F920FB60F9211248F937A
S11307109F93EF93FF93909129018091280198175B
S113072069F0E0912801EF5FEF71E0932801F0E0B8
S1130730E65BFE4F80818093C60005C0E1ECF0E0EB
S113074080818F7D8083FF91EF919F918F910F9096
S11307500FBE0F901F901895109229011092280136
S11307601092270110922601282F392F33231CF4CD
S113077022E02093C00090789093C5008093C40039
S113078088E98093C10086E08093C2000895909127
S11307902701809126019817A9F0909126019F5F67
S11307A09F71E92FF0E0E65DFE4F208180912501E5
S11307B0909326011092250190E0982F8827820FAC
S11307C0911D089580E091E00895209129012F5F03
S11307D02F71909128012917E1F3E22FF0E0E65BF5
S11307E0FE4F808320932901E1ECF0E08081806258
S11307F080830895CF93DF93EC0103C021960E9478
S1130800E50388818111FACFDF91CF910895AEE09D
S1130810B0E0EDE0F4E00C94C8060D891E8986E092
S11308208C831A8309838FEF9FE79E838D83AE01A8
S1130830475E5F4F6F89788DCE0101960E9429042F
S1130840EF81F885E00FF11F10822E96E4E00C94FE
S1130850E406ABE0B0E0EFE2F4E00C94BA066C011D
S11308607B018A01FC0117821682838181FFCCC13E
S1130870CE0101963C01F6019381F70193FD859128
S113088093FF81917F01882309F4BAC1853239F439
S113089093FD859193FF81917F01853229F4B601FF
S11308A090E00E942006E7CF912C212C312CFFE10F
S11308B0F315D8F08B3279F038F4803279F0833242
S11308C0A1F4232D20611DC08D3261F0803369F4C1
S11308D0232D216016C0832D8260382EE32DE46021
S11308E03E2E2AC0F32DF8601DC037FC2DC020ED2C
S11308F0280F2A3040F08E32B9F436FC81C1232D02
S11309002064322E19C036FE06C08AE0989E200D5F
S11309101124922E11C0EAE02E9E200D1124222EC5
S1130920F32DF0623F2E08C08C3621F4832D8068AD
S1130930382E02C0883641F4F70193FD859193FF68
S113094081917F018111B3CF982F9F7D955493306E
S113095028F40C5F1F4F9FE399830DC0833631F059
S1130960833771F0833509F059C021C0F8018081C3
S113097089830E5F1F4F88248394912C530113C0E5
S11309802801F2E04F0E511CF801A080B18036FE20
S113099003C0692D70E002C06FEF7FEFC5010E94B4
S11309A015064C018201F32DFF773F2E16C0280156
S11309B022E0420E511CF801A080B18036FE03C033
S11309C0692D70E002C06FEF7FEFC5010E940A0637
S11309D04C01F32DF0683F2E820133FC1BC0822DA5
S11309E090E088169906B0F4B60180E290E00E9487
S11309F020062A94F4CFF50137FC859137FE8191C6
S1130A005F01B60190E00E94200621102A9421E0A3
S1130A10821A91088114910471F7E8C0843611F0A8
S1130A20893641F5F80137FE07C060817181828102
S1130A3093810C5F1F4F08C060817181072E000CE9
S1130A40880B990B0E5F1F4FF32DFF763F2E97FFF8
S1130A5009C090958095709561957F4F8F4F9F4FFA
S1130A60F0683F2E2AE030E0A3010E945C06882E45
S1130A70861845C0853731F4232D2F7EB22E2AE007
S1130A8030E025C0932D997FB92E8F36C1F018F42C
S1130A90883579F0B5C0803719F0883721F0B0C0B7
S1130AA0E92FE061BE2EB4FE0DC0FB2DF460BF2E15
S1130AB009C034FE0AC0292F2660B22E06C028E0E1
S1130AC030E005C020E130E002C020E132E0F8016E
S1130AD0B7FE07C060817181828193810C5F1F4FD3
S1130AE006C06081718180E090E00E5F1F4FA3011A
S1130AF00E945C06882E8618FB2DFF773F2E36FE5B
S1130B000DC0232D2E7FA22E891458F434FE0BC061
S1130B1032FC09C0832D8E7EA82E05C0B82CA32CD0
S1130B2003C0B82C01C0B92CA4FE0FC0FE01E80D0F
S1130B30F11D8081803321F49A2D997EA92E09C05C
S1130B40A2FE06C0B394B39404C08A2D867809F03B
S1130B50B394A3FC11C0A0FE06C0B21488F4280C00
S1130B60922C9B180EC0B21460F4B60180E290E09F
S1130B700E942006B394F7CFB21418F42B1802C0C5
S1130B80982C212CA4FE10C0B60180E390E00E94B2
S1130B902006A2FE17C0A1FC03C088E790E002C0B3
S1130BA088E590E0B6010CC08A2D867859F0A1FE44
S1130BB002C08BE201C080E2A7FC8DE2B60190E0A6
S1130BC00E942006891438F4B60180E390E00E9464
S1130BD020069A94F7CF8A94F301E80DF11D8081E1
S1130BE0B60190E00E9420068110F5CF222009F47E
S1130BF042CEB60180E290E00E9420062A94F6CF0D
S1130C00F6018681978102C08FEF9FEF2B96E2E178
S1130C100C94D606FC010590615070400110D8F781
S1130C20809590958E0F9F1F0895FC016150704030
S1130C3001900110D8F7809590958E0F9F1F08950D
S1130C400F931F93CF93DF93FB01238121FD03C0F7
S1130C508FEF9FEF2CC022FF16C04681578124815D
S1130C6035814217530744F4A081B1819D012F5F60
S1130C703F4F318320838C93268137812F5F3F4FF1
S1130C803783268314C08B01EC01FB010084F185BA
S1130C90E02D0995892BE1F6D80116968D919C914A
S1130CA01797019617969C938E931697CE01DF9112
S1130CB0CF911F910F910895FA01AA27283051F17D
S1130CC0203181F1E8946F936E7F6E5F7F4F8F4F79
S1130CD09F4FAF4FB1E03ED0B4E03CD0670F781FD8
S1130CE0891F9A1FA11D680F791F8A1F911DA11DBD
S1130CF06A0F711D811D911DA11D20D009F46894F6
S1130D003F912AE0269F11243019305D3193DEF69D
S1130D10CF010895462F4770405D4193B3E00FD053
S1130D20C9F7F6CF462F4F70405D4A3318F0495D3E
S1130D3031FD4052419302D0A9F7EACFB4E0A69521
S1130D409795879577956795BA95C9F70097610543
S1130D50710508959B01AC010A2E06945795479599
S1130D6037952795BA95C9F7620F731F841F951F8E
S1130D70A01D08952F923F924F925F926F927F929F
S1130D808F929F92AF92BF92CF92DF92EF92FF9297
S1130D900F931F93CF93DF93CDB7DEB7CA1BDB0B43
S1130DA00FB6F894DEBF0FBECDBF09942A883988E8
S1130DB048885F846E847D848C849B84AA84B984EF
S1130DC0C884DF80EE80FD800C811B81AA81B981FB
S1130DD0CE0FD11D0FB6F894DEBF0FBECDBFED010F
S1090DE00895F894FFCF12
S1130DE6010101543A25644320483A256425250027
S1130DF64441544525647C485525647C534E2564FA
S1050E060000E6
S9030000FC
