S019000055534152545F4472697665725F44656D6F2E73726563CD
S11300000C9434000C9451000C9451000C94510045
S11300100C9451000C9451000C9451000C94510018
S11300200C9451000C9451000C9451000C94510008
S11300300C9451000C9451000C9451000C945100F8
S11300400C9451000C9451000C9468000C9496008C
S11300500C9451000C9451000C9451000C945100D8
S11300600C9451000C94510011241FBECFEFD8E022
S1130070DEBFCDBF11E0A0E0B1E0EAE3F2E002C0F0
S113008005900D92AC31B107D9F721E0ACE1B1E0B4
S113009001C01D92A136B207E1F70E9453000C94EF
S11300A01B010C94000087E690E00E94C000789445
S11300B00E94DB00EC0190FDFBCF8134910521F41B
S11300C080E091E00E940E018C2F0E94F900F0CF95
S11300D01F920F920FB60F9211242F938F939F9319
S11300E0EF93FF938091C0002091C6008C71E09142
S11300F01E01EF5FEF7190911D01E91739F0E09354
S11301001E01F0E0EF5DFE4F208301C082E090917C
S11301101C01892B80931C01FF91EF919F918F917A
S11301202F910F900FBE0F901F9018951F920F9252
S11301300FB60F9211248F939F93EF93FF93909197
S1130140200180911F01981769F0E0911F01EF5F72
S1130150EF71E0931F01F0E0EF5BFE4F808180932D
S1130160C60005C0E1ECF0E080818F7D8083FF91C3
S1130170EF919F918F910F900FBE0F901F90189544
S11301801092200110921F0110921E0110921D0165
S1130190282F392F33231CF422E02093C0009078B9
S11301A09093C5008093C40088E98093C10086E0E1
S11301B08093C200089590911E0180911D019817AB
S11301C0A9F090911D019F5F9F71E92FF0E0EF5D11
S11301D0FE4F208180911C0190931D0110921C01FF
S11301E090E0982F8827820F911D089580E091E078
S11301F00895209120012F5F2F7190911F012917DD
S1130200E1F3E22FF0E0EF5BFE4F808320932001C7
S1130210E1ECF0E08081806280830895CF93DF93E6
S1130220EC0103C021960E94F90088818111FACF64
S10D0230DF91CF910895F894FFCFF9
S113023A64752068617374206D69722065696E2023
S10F024A4120676573656E6465742100D3
S9030000FC
