S012000055534152545F44656D6F2E737265639F
S11300000C9434000C9451000C9451000C94510045
S11300100C9451000C9451000C9451000C94510018
S11300200C9451000C9451000C9451000C94510008
S11300300C9451000C9451000C9451000C945100F8
S11300400C9451000C9451000C9453000C945100E6
S11300500C9451000C9451000C9451000C945100D8
S11300600C9451000C94510011241FBECFEFD8E022
S1130070DEBFCDBF11E0A0E0B1E0E0E4F1E002C0FA
S113008005900D92A630B107D9F721E0A6E0B1E0C2
S113009001C01D92A730B207E1F70E947B000C94C7
S11300A09E000C9400001F920F920FB60F92112421
S11300B08F938091C60080930601813411F480935C
S11300C0C6008F910F900FBE0F901F9018959091BE
S11300D0C00095FFFCCF8093C6000895CF93DF93B3
S11300E0EC0103C021960E94670088818111FACF38
S11300F0DF91CF910895F89487E690E09093C5003E
S11301008093C400E1ECF0E0808188618083808189
S113011080688083E2ECF0E080818660808378945C
S11301202FEF89E698E1215080409040E1F700C02C
S1130130000080E091E00E946E00F2CFF894FFCFBF
S109014048616C6C6F00C5
S9030000FC
