S012000055534152545F44656D6F2E737265639F
S11300000C9434000C9446000C9446000C94460066
S11300100C9446000C9446000C9446000C94460044
S11300200C9446000C9446000C9446000C94460034
S11300300C9446000C9446000C9446000C94460024
S11300400C9446000C9446000C946E000C944600EC
S11300500C9446000C9446000C9446000C94460004
S11300600C9446000C94460011241FBECFEFD8E038
S1130070DEBFCDBF21E0A0E0B1E001C01D92A13000
S1130080B207E1F70E9448000C9497000C9400001A
S1130090F89487E690E09093C5008093C400E1EC67
S11300A0F0E0808188618083808180688083E2ECD5
S11300B0F0E080818660808378942FEF89E698E170
S11300C0215080409040E1F700C00000F6CF9091AD
S11300D0C00095FFFCCF8093C60008951F920F9235
S11300E00FB60F9211242F933F934F935F936F9307
S11300F07F938F939F93AF93BF93EF93FF938091DD
S1130100C6008F5F809300010E946700FF91EF910A
S1130110BF91AF919F918F917F916F915F914F911B
S11301203F912F910F900FBE0F901F901895F89448
S1050130FFCFFB
S9030000FC
