S00E0000454550524F4D2E737265634E
S11300000C9434000C94D6010C9408020C94510006
S11300100C9451000C9451000C9451000C94510018
S11300200C9451000C9451000C9451000C94510008
S11300300C9451000C9451000C9451000C945100F8
S11300400C9451000C9451000C9451000C945100E8
S11300500C9451000C9451000C9451000C945100D8
S11300600C9451000C94510011241FBECFEFD8E022
S1130070DEBFCDBF11E0A0E0B1E0E6E8FCE002C0E5
S113008005900D92A631B107D9F721E0A6E1B1E0C0
S113009001C01D92A831B207E1F70E9447020C94F7
S11300A041060C94000088B1886088B9000088B1CA
S11300B0877F88B90895CF93C82F662321F088B12C
S11300C0806288B903C088B18F7D88B988B18F7E7A
S11300D088B98AB180618AB98AB180628AB98AB1E1
S11300E080648AB98AB180688AB98BB18F778BB9F9
S11300F08BB18F7B8BB98BB18F7D8BB98BB18F7E9D
S11301008BB9CC231CF48BB180688BB9C6FF03C0B8
S11301108BB180648BB9C5FF03C08BB180628BB98E
S1130120C4FF03C08BB180618BB90E9453008BB1B3
S11301308F778BB98BB18F7B8BB98BB18F7D8BB95B
S11301408BB18F7E8BB9C3FF03C08BB180688BB931
S1130150C2FF03C08BB180648BB9C1FF03C08BB1F4
S113016080628BB9C0FF03C08BB180618BB90E94E0
S113017053008BB180618BB98BB180628BB98BB129
S113018080648BB98BB180688BB9CF910895882333
S113019021F088B1806288B903C088B18F7D88B9A5
S11301A088B1806188B98AB18F7E8AB98AB18F7D1E
S11301B08AB98AB18F7B8AB98AB18F778AB988B1B3
S11301C0886088B900004C9902C080E001C080E1D9
S11301D04D9980624E9980644F99806898B1977F59
S11301E098B9000098B1986098B900004C99816062
S11301F04D9982604E9984604F99886098B1977F39
S113020098B9089580E00E94C7008823DCF300C0F9
S113021000C080E00E94C7000895CF93C82F0E94B9
S1130220020160E08C2F0E945B00CF91089581E071
S11302300E940D010895CF93C82F0E940201CA3075
S113024049F4803410F480E401C080E080580E94B6
S11302500D0104C061E08C2F0E945B00CF910895D2
S1130260CF93DF93FC0103C00E941B01FE01EF0149
S1130270219680818111F8CFDF91CF910895CF939A
S1130280C82F87B1806287B987B1806187B987B188
S1130290886087B98AB180618AB98AB180628AB973
S11302A08AB180648AB98AB180688AB98FE99FE08B
S11302B00197F1F700C000008BB180628BB98BB15C
S11302C080618BB90E94530081EE94E00197F1F7AD
S11302D000C000000E94530095E19A95F1F70000D8
S11302E00E94530085E18A95F1F700008BB18F7E5F
S11302F08BB90E94530095E19A95F1F7000088E2CA
S11303000E940D0188E00E940D010E94170186E001
S11303100E940D018C2F0E940D01CF9108958AB186
S11303208B7F8AB98AB1877F8AB98BB184608BB994
S11303308BB188608BB9E9E6F0E080818A608083C4
S11303408DB383608DBB789408950F931F93CF93DF
S1130350DF93CDB7DEB760970FB6F894DEBF0FBE5C
S1130360CDBF182F092F0E9417010F931F9384E00C
S113037091E09F938F938E010F5F1F4F1F930F93F5
S11303800E94DA02C8010E9430010F900F900F9072
S11303900F900F900F9060960FB6F894DEBF0FBECB
S11303A0CDBFDF91CF911F910F9108951F920F92AE
S11303B00FB60F9211242F933F934F935F936F9334
S11303C07F938F939F93AF93BF93EF93FF930E9479
S11303D0CA0268EE73E00E9456029093170180935C
S11303E0160180911601909117010E94A501FF91B9
S11303F0EF91BF91AF919F918F917F916F915F9199
S11304004F913F912F910F900FBE0F901F90189511
S11304101F920F920FB60F9211242F933F934F9375
S11304205F936F937F938F939F93AF93BF93EF9358
S1130430FF9360911601709117018EE290E00E9483
S113044095050E9417018FE091E00E9430012FEF83
S113045083ED90E3215080409040E1F700C000001C
S113046080911601909117010E94A501FF91EF91CF
S1130470BF91AF919F918F917F916F915F914F91B8
S11304803F912F910F900FBE0F901F9018950E94CF
S11304908F018CE00E943F010E9417018EE290E0E0
S11304A00E948D0590E00E94A501FFCF97FB072EC7
S11304B016F4009407D077FD09D00E946A0207FC65
S11304C005D03EF4909581959F4F08957095619560
S11304D07F4F0895AA1BBB1B51E107C0AA1FBB1F76
S11304E0A617B70710F0A61BB70B881F991F5A95BC
S11304F0A9F780959095BC01CD0108958F929F92A4
S1130500AF92BF92CF92DF92EF92FF92CF93DF939D
S1130510EC01688179818A819B816115710581056E
S1130520910521F464E279ED8BE597E02DE133EF59
S113053041E050E00E94A70549015A019B01AC012A
S1130540A7EAB1E40E94C6056B017C01ACEEB4EFEE
S1130550A50194010E94D405DC01CB018C0D9D1DE5
S1130560AE1DBF1DB7FF03C00197A109B048888322
S11305709983AA83BB839F77DF91CF91FF90EF90FC
S1130580DF90CF90BF90AF909F908F9008950E947E
S11305907E02089580E091E00E947E020895A0E02A
S11305A0B0E08093000190930101A0930201B09305
S11305B003010895AEE0B0E0E0EEF2E00C94E7054C
S11305C00D891E8986E08C831A8309838FEF9FE748
S11305D09E838D83AE01475E5F4F6F89788DCE0118
S11305E001960E94FC02EF81F885E00FF11F108252
S11305F02E96E4E00C940306ABE0B0E0E2E0F3E016
S11306000C94D9056C017B018A01FC0117821682C6
S1130610838181FFCCC1CE0101963C01F601938117
S1130620F70193FD859193FF81917F01882309F45C
S1130630BAC1853239F493FD859193FF81917F018D
S1130640853229F4B60190E00E94F304E7CF912C9F
S1130650212C312CFFE1F315D8F08B3279F038F4EA
S1130660803279F08332A1F4232D20611DC08D32B4
S113067061F0803369F4232D216016C0832D8260DC
S1130680382EE32DE4603E2E2AC0F32DF8601DC001
S113069037FC2DC020ED280F2A3040F08E32B9F4FB
S11306A036FC81C1232D2064322E19C036FE06C0CB
S11306B08AE0989E200D1124922E11C0EAE02E9E0D
S11306C0200D1124222EF32DF0623F2E08C08C360B
S11306D021F4832D8068382E02C0883641F4F70156
S11306E093FD859193FF81917F018111B3CF982F61
S11306F09F7D9554933028F40C5F1F4F9FE399839B
S11307000DC0833631F0833771F0833509F059C059
S113071021C0F801808189830E5F1F4F8824839450
S1130720912C530113C02801F2E04F0E511CF80123
S1130730A080B18036FE03C0692D70E002C06FEF67
S11307407FEFC5010E94E8044C018201F32DFF777D
S11307503F2E16C0280122E0420E511CF801A08051
S1130760B18036FE03C0692D70E002C06FEF7FEFE9
S1130770C5010E94DD044C01F32DF0683F2E820177
S113078033FC1BC0822D90E088169906B0F4B601A4
S113079080E290E00E94F3042A94F4CFF50137FC40
S11307A0859137FE81915F01B60190E00E94F304C8
S11307B021102A9421E0821A91088114910471F77E
S11307C0E8C0843611F0893641F5F80137FE07C0D8
S11307D060817181828193810C5F1F4F08C06081A9
S11307E07181072E000C880B990B0E5F1F4FF32DA0
S11307F0FF763F2E97FF09C090958095709561957F
S11308007F4F8F4F9F4FF0683F2E2AE030E0A301C7
S11308100E942F05882E861845C0853731F4232D74
S11308202F7EB22E2AE030E025C0932D997FB92E79
S11308308F36C1F018F4883579F0B5C0803719F0D7
S1130840883721F0B0C0E92FE061BE2EB4FE0DC0A0
S1130850FB2DF460BF2E09C034FE0AC0292F266088
S1130860B22E06C028E030E005C020E130E002C02E
S113087020E132E0F801B7FE07C060817181828116
S113088093810C5F1F4F06C06081718180E090E00E
S11308900E5F1F4FA3010E942F05882E8618FB2D83
S11308A0FF773F2E36FE0DC0232D2E7FA22E8914F6
S11308B058F434FE0BC032FC09C0832D8E7EA82E62
S11308C005C0B82CA32C03C0B82C01C0B92CA4FEBD
S11308D00FC0FE01E80DF11D8081803321F49A2DB3
S11308E0997EA92E09C0A2FE06C0B394B39404C095
S11308F08A2D867809F0B394A3FC11C0A0FE06C02B
S1130900B21488F4280C922C9B180EC0B21460F414
S1130910B60180E290E00E94F304B394F7CFB214DE
S113092018F42B1802C0982C212CA4FE10C0B60178
S113093080E390E00E94F304A2FE17C0A1FC03C070
S113094088E790E002C088E590E0B6010CC08A2DEB
S1130950867859F0A1FE02C08BE201C080E2A7FCB8
S11309608DE2B60190E00E94F304891438F4B601D4
S113097080E390E00E94F3049A94F7CF8A94F30101
S1130980E80DF11D8081B60190E00E94F30481100E
S1130990F5CF222009F442CEB60180E290E00E9415
S11309A0F3042A94F6CFF6018681978102C08FEF73
S11309B09FEF2B96E2E10C94F505FC010590615044
S11309C070400110D8F7809590958E0F9F1F089561
S11309D0FC016150704001900110D8F7809590950A
S11309E08E0F9F1F08950F931F93CF93DF93FB01E7
S11309F0238121FD03C08FEF9FEF2CC022FF16C07F
S1130A0046815781248135814217530744F4A081DC
S1130A10B1819D012F5F3F4F318320838C932681C9
S1130A2037812F5F3F4F3783268314C08B01EC013E
S1130A30FB010084F185E02D0995892BE1F6D801AD
S1130A4016968D919C911797019617969C938E9369
S1130A501697CE01DF91CF911F910F910895FA015E
S1130A60AA27283051F1203181F1E8946F936E7FE9
S1130A706E5F7F4F8F4F9F4FAF4FB1E03ED0B4E0DA
S1130A803CD0670F781F891F9A1FA11D680F791F1B
S1130A908A1F911DA11D6A0F711D811D911DA11D2C
S1130AA020D009F468943F912AE0269F112430193C
S1130AB0305D3193DEF6CF010895462F4770405DD7
S1130AC04193B3E00FD0C9F7F6CF462F4F70405D86
S1130AD04A3318F0495D31FD4052419302D0A9F7E1
S1130AE0EACFB4E0A6959795879577956795BA95DB
S1130AF0C9F700976105710508959B01AC010A2EA1
S1130B0006945795479537952795BA95C9F7620F77
S1130B10731F841F951FA01D0895F999FECF92BDE0
S1130B2081BDF89A992780B50895262FF999FECFAB
S1130B3092BD81BDF89A019700B4021639F01FBA2C
S1130B4020BD0FB6F894FA9AF99A0FBE0895052EAF
S1130B5097FB1EF400940E94BE0557FD07D00E9427
S1130B60100607FC03D04EF40C94BE055095409536
S1130B70309521953F4F4F4F5F4F08959095809545
S1130B80709561957F4F8F4F9F4F08950E94320655
S1130B90A59F900DB49F900DA49F800D911D1124CD
S1130BA00895B7FF0C94C6050E94C605821B930BDB
S1130BB008952F923F924F925F926F927F928F92FD
S1130BC09F92AF92BF92CF92DF92EF92FF920F93D8
S1130BD01F93CF93DF93CDB7DEB7CA1BDB0B0FB6E2
S1130BE0F894DEBF0FBECDBF09942A88398848889F
S1130BF05F846E847D848C849B84AA84B984C88435
S1130C00DF80EE80FD800C811B81AA81B981CE0F2B
S1130C10D11D0FB6F894DEBF0FBECDBFED01089510
S1130C20A1E21A2EAA1BBB1BFD010DC0AA1FBB1FEC
S1130C30EE1FFF1FA217B307E407F50720F0A21B5E
S1130C40B30BE40BF50B661F771F881F991F1A94CB
S1130C5069F760957095809590959B01AC01BD01F5
S1130C60CF010895A29FB001B39FC001A39F700D4F
S1130C70811D1124911DB29F700D811D1124911DA0
S1090C800895F894FFCF73
S1130C86010000004E756D6265723A2025640053BA
S1090C9661766564210093
S9030000FC
