S013000047636343457865554530302E73726563A5
S11300000C9434000C9449000C9449000C9449005D
S11300100C9449000C9449000C9449000C94490038
S11300200C9449000C9449000C9449000C94490028
S11300300C9449000C9449000C9449000C94490018
S11300400C9449000C9449000C9449000C94490008
S11300500C9449000C9449000C9449000C944900F8
S11300600C9449000C94490011241FBECFEFD8E032
S1130070DEBFCDBF11E0A0E0B1E0E4E4F2E002C0F5
S113008005900D92AE30B107D9F70E9418010C9477
S113009020010C9400008BB180648BB900008BB1FB
S11300A08F7B8BB90895CF93DF93D82F662321F0EC
S11300B08BB180618BB903C08BB18F7E8BB98BB14F
S11300C08F7D8BB98AB18F608AB9CBB1C07F8D2FF8
S11300D082958F708C2B8BB90E944B00DF70DC2BC8
S11300E0DBB90E944B00CF60CBB9DF91CF9108956B
S11300F0882321F08BB180618BB903C08BB18F7ED3
S11301008BB98BB180628BB98AB1807F8AB98BB18C
S113011080648BB9000099B19295907F8BB18F7BED
S11301208BB900008BB180648BB9000089B18F70EA
S11301302BB12F7B2BB9892B089580E00E94780086
S11301408823DCF300C000C080E00E94780008959A
S1130150CF93C82F0E949D0060E08C2F0E94530013
S1130160CF91089581E00E94A8000895CF93C82FED
S11301700E949D00CA3049F4803410F480E401C028
S113018080E080580E94A80004C061E08C2F0E9487
S11301905300CF910895CF93DF93FC0103C00E94D5
S11301A0B600FE01EF01219680818111F8CFDF9125
S11301B0CF910895CF93C82F8AB18F678AB98FE9F9
S11301C09FE00197F1F700C000008BB182608BB90A
S11301D08BB181608BB90E944B0081EE94E0019752
S11301E0F1F700C000000E944B0095E19A95F1F7E9
S11301F000000E944B0085E18A95F1F700008BB165
S11302008E7F8BB90E944B0095E19A95F1F700001F
S113021088E20E94A80088E00E94A8000E94B20020
S113022086E00E94A8008C2F0E94A800CF91089518
S11302308DE00E94DA0080E091E00E94CB00FFCFC5
S1070240F894FFCF5C
S111024448656C6C6F2C20776F726C6421001F
S9030000FC
