S01000004D6573736F6D61742E73726563CB
S11300000C9434000C9451000C9451000C94510045
S11300100C9451000C9451000C9451000C94510018
S11300200C9451000C9451000C9451000C94110345
S11300300C9451000C9451000C9451000C945100F8
S11300400C9451000C9451000C9439030C946703E4
S11300500C9451000C9451000C9451000C945100D8
S11300600C9451000C94510011241FBECFEFD8E022
S1130070DEBFCDBF11E0A0E0B1E0E0EBFDE002C0E7
S113008005900D92A032B107D9F721E0A0E2B1E0CA
S113009001C01D92AE37B207E1F70E94F6020C943C
S11300A0D6060C9400001F93CF93DF9300D000D0AA
S11300B01F92CDB7DEB7FC019E012F5F3F4F85E055
S11300C0D9011D928A95E9F787B1816087B998B102
S11300D0916098B9BFEF21EE84E0B1502040804098
S11300E0E1F700C0000098B19E7F98B99FEFA0EEA1
S11300F0B0E09150A040B040E1F700C0000098B1DA
S1130100916098B997B19E7F97B925ED2A95F1F73B
S11301100000309965C08FE391E00197F1F700C0CA
S11301200000309B5FC0AFE3B1E01197F1F700C06E
S1130130000010E034C02F5F3F4F293C310518F018
S113014053C020E030E0309BF6CFB0EABA95F1F727
S1130150309B0CC047E050E0491B510921E030E0DE
S113016002C0220F331F4A95E2F7822B20E030E0D1
S113017005C02F5F3F4F293C3105C0F53099F9CFB9
S11301809F5F02C080E090E09830D8F221E030E038
S11301902C0F3D1F210F311DD9018C931F5F15308A
S11301A088F387B1816087B988B1816088B9BFEF6E
S11301B021EE84E0B15020408040E1F700C000000F
S11301C089819A813B812C81890F830F820F9D81C4
S11301D089130EC030838981DB018C9380E009C0D0
S11301E08FEF07C08EEF05C08DEF03C08FEF01C006
S11301F08BEF0F900F900F900F900F90DF91CF9196
S11302001F9108950E945300089588B1886088B9A9
S113021085E08A95F1F7000088B1877F88B9089551
S1130220CF93C82F662321F088B1806288B903C0B8
S113023088B18F7D88B988B18F7E88B98AB1806191
S11302408AB98AB180628AB98AB180648AB98AB16A
S113025080688AB98BB18F778BB98BB18F7B8BB95F
S11302608BB18F7D8BB98BB18F7E8BB9CC231CF472
S11302708BB180688BB9C6FF03C08BB180648BB926
S1130280C5FF03C08BB180628BB9C4FF03C08BB1BF
S113029080618BB90E9405018BB18F778BB98BB1CB
S11302A08F7B8BB98BB18F7D8BB98BB18F7E8BB9E3
S11302B0C3FF03C08BB180688BB9C2FF03C08BB18D
S11302C080648BB9C1FF03C08BB180628BB9C0FF5E
S11302D003C08BB180618BB90E9405018BB1806131
S11302E08BB98BB180628BB98BB180648BB98BB1C4
S11302F080688BB9CF910895882321F088B18062FA
S113030088B903C088B18F7D88B988B1806188B904
S11303108AB18F7E8AB98AB18F7D8AB98AB18F7B7F
S11303208AB98AB18F778AB988B1886088B985E03B
S11303308A95F1F700004C9902C080E001C080E189
S11303404D9980624E9980644F99806898B1977FE7
S113035098B995E09A95F1F7000098B1986098B92A
S113036095E09A95F1F700004C9981604D9982606F
S11303704E9984604F99886098B1977F98B9089591
S113038080E00E947C018823DCF385E18A95F1F703
S1130390000080E00E947C010895CF93C82F0E9442
S11303A0C00160E08C2F0E941001CF91089581E07C
S11303B00E94CD010895CF93C82F0E94C001CA3076
S11303C049F4803410F480E401C080E080580E9435
S11303D0CD0104C061E08C2F0E941001CF910895DB
S11303E0CF93DF93FC0103C00E94DB01FE01EF0108
S11303F0219680818111F8CFDF91CF910895CF9319
S1130400C82F87B1806287B987B1806187B987B106
S1130410886087B98AB180618AB98AB180628AB9F1
S11304208AB180648AB98AB180688AB98FEF99EFFA
S11304300197F1F700C000008BB180628BB98BB1DA
S113044080618BB90E9405018FE19EE40197F1F769
S113045000C000000E9405018FEF90E00197F1F7C2
S113046000C000000E9405018FEF90E00197F1F7B2
S113047000C000008BB18F7E8BB90E9405018FEF05
S113048090E00197F1F700C0000088E20E94CD01DE
S113049088E00E94CD010E94D70186E00E94CD0130
S11304A08C2F0E94CD01CF910895E1E8F0E0808186
S11304B08860808388E09DE390938900809388001E
S11304C0808185608083EFE6F0E0808182608083B4
S11304D008950E94AC0399278134910511F130F4F9
S11304E08133910551F0C49791F0089584369105B4
S11304F0E1F081379105E9F008958AE09DE3909356
S113050089008093880081E080930101089588E246
S113051094EF909389008093880084E08093010194
S1130520089581E080932001089581E08093210162
S11305300895109221010895CF93DF9367E671E047
S11305408DE791E00E94020181114DC090916701F5
S113055080917D011F929F931F928F9382E091E07F
S11305609F938F93C9E6D1E0DF93CF930E94EC036E
S11305700E94D701CE010E94F001809100018F5F9B
S113058080930001209100019091670180917D0189
S11305901F922F931F929F931F928F938FE091E04E
S11305A09F938F93DF93CF930E94EC0382E00E948A
S11305B0CA03CE010E94DF0383E00E94CA03809134
S11305C020012DB73EB72E5E3F4F0FB6F8943EBFC5
S11305D00FBE2DBF811104C085B1816085B903C0F0
S11305E085B18E7F85B9DF91CF9108958CE00E940B
S11305F0FF010E94D70187E690E00E9491030E94C8
S11306005502789481E0809321010E9469022FEFC2
S113061080E792E0215080409040E1F700C0000064
S1130620F4CF1F920F920FB60F9211242F933F9382
S11306304F935F936F937F938F939F93AF93BF93E6
S1130640EF93FF9380912101813011F40E949C0269
S1130650FF91EF91BF91AF919F918F917F916F9196
S11306605F914F913F912F910F900FBE0F901F906C
S113067018951F920F920FB60F9211242F938F93F8
S11306809F93EF93FF938091C0002091C6008C71DB
S1130690E0912401EF5FEF7190912301E91739F0A4
S11306A0E0932401F0E0E95DFE4F208301C082E085
S11306B090912201892B80932201FF91EF919F91C8
S11306C08F912F910F900FBE0F901F9018951F922E
S11306D00F920FB60F9211248F939F93EF93FF9372
S11306E09091260180912501981769F0E0912501E8
S11306F0EF5FEF71E0932501F0E0E95BFE4F80814D
S11307008093C60005C0E1ECF0E080818F7D80839A
S1130710FF91EF919F918F910F900FBE0F901F90BB
S1130720189510922601109225011092240110921E
S11307302301282F392F33231CF422E02093C000F7
S113074090789093C5008093C40088E98093C10099
S113075086E08093C2000895909124018091230142
S11307609817A9F0909123019F5F9F71E92FF0E002
S1130770E95DFE4F20818091220190932301109224
S1130780220190E0982F8827820F911D089580E020
S113079091E00895209126012F5F2F7190912501FA
S11307A02917E1F3E22FF0E0E95BFE4F8083209309
S11307B02601E1ECF0E08081806280830895CF938C
S11307C0DF93EC0103C021960E94CA038881811142
S11307D0FACFDF91CF910895AEE0B0E0E2EFF3E01D
S11307E00C94AD060D891E8986E08C831A830983D7
S11307F08FEF9FE79E838D83AE01475E5F4F6F89C6
S1130800788DCE0101960E940E04EF81F885E00FE9
S1130810F11F10822E96E4E00C94C906ABE0B0E020
S1130820E4E1F4E00C949F066C017B018A01FC0175
S113083017821682838181FFCCC1CE0101963C01CF
S1130840F6019381F70193FD859193FF81917F01D7
S1130850882309F4BAC1853239F493FD859193FF55
S113086081917F01853229F4B60190E00E9405064A
S1130870E7CF912C212C312CFFE1F315D8F08B32EA
S113088079F038F4803279F08332A1F4232D206199
S11308901DC08D3261F0803369F4232D216016C0B0
S11308A0832D8260382EE32DE4603E2E2AC0F32D82
S11308B0F8601DC037FC2DC020ED280F2A3040F011
S11308C08E32B9F436FC81C1232D2064322E19C036
S11308D036FE06C08AE0989E200D1124922E11C087
S11308E0EAE02E9E200D1124222EF32DF0623F2EDD
S11308F008C08C3621F4832D8068382E02C08836D7
S113090041F4F70193FD859193FF81917F0181115A
S1130910B3CF982F9F7D9554933028F40C5F1F4FCD
S11309209FE399830DC0833631F0833771F08335AB
S113093009F059C021C0F801808189830E5F1F4FDF
S113094088248394912C530113C02801F2E04F0EA4
S1130950511CF801A080B18036FE03C0692D70E0FF
S113096002C06FEF7FEFC5010E94FA054C018201BE
S1130970F32DFF773F2E16C0280122E0420E511CB2
S1130980F801A080B18036FE03C0692D70E002C07A
S11309906FEF7FEFC5010E94EF054C01F32DF06866
S11309A03F2E820133FC1BC0822D90E088169906ED
S11309B0B0F4B60180E290E00E9405062A94F4CFD8
S11309C0F50137FC859137FE81915F01B60190E016
S11309D00E94050621102A9421E0821A91088114AC
S11309E0910471F7E8C0843611F0893641F5F801B5
S11309F037FE07C060817181828193810C5F1F4F34
S1130A0008C060817181072E000C880B990B0E5F62
S1130A101F4FF32DFF763F2E97FF09C090958095C9
S1130A20709561957F4F8F4F9F4FF0683F2E2AE05E
S1130A3030E0A3010E944106882E861845C0853700
S1130A4031F4232D2F7EB22E2AE030E025C0932DE1
S1130A50997FB92E8F36C1F018F4883579F0B5C076
S1130A60803719F0883721F0B0C0E92FE061BE2E3D
S1130A70B4FE0DC0FB2DF460BF2E09C034FE0AC0C5
S1130A80292F2660B22E06C028E030E005C020E100
S1130A9030E002C020E132E0F801B7FE07C0608117
S1130AA07181828193810C5F1F4F06C060817181C7
S1130AB080E090E00E5F1F4FA3010E944106882E44
S1130AC08618FB2DFF773F2E36FE0DC0232D2E7F7B
S1130AD0A22E891458F434FE0BC032FC09C0832DB5
S1130AE08E7EA82E05C0B82CA32C03C0B82C01C040
S1130AF0B92CA4FE0FC0FE01E80DF11D80818033E6
S1130B0021F49A2D997EA92E09C0A2FE06C0B394A1
S1130B10B39404C08A2D867809F0B394A3FC11C061
S1130B20A0FE06C0B21488F4280C922C9B180EC0A8
S1130B30B21460F4B60180E290E00E940506B3941A
S1130B40F7CFB21418F42B1802C0982C212CA4FE51
S1130B5010C0B60180E390E00E940506A2FE17C013
S1130B60A1FC03C088E790E002C088E590E0B601EC
S1130B700CC08A2D867859F0A1FE02C08BE201C018
S1130B8080E2A7FC8DE2B60190E00E94050689147C
S1130B9038F4B60180E390E00E9405069A94F7CFFA
S1130BA08A94F301E80DF11D8081B60190E00E9462
S1130BB005068110F5CF222009F442CEB60180E269
S1130BC090E00E9405062A94F6CFF601868197816B
S1130BD002C08FEF9FEF2B96E2E10C94BB06FC0161
S1130BE00590615070400110D8F7809590958E0F54
S1130BF09F1F0895FC016150704001900110D8F7C7
S1130C00809590958E0F9F1F08950F931F93CF93F8
S1130C10DF93FB01238121FD03C08FEF9FEF2CC0E5
S1130C2022FF16C04681578124813581421753071C
S1130C3044F4A081B1819D012F5F3F4F3183208314
S1130C408C93268137812F5F3F4F3783268314C0CF
S1130C508B01EC01FB010084F185E02D0995892BC2
S1130C60E1F6D80116968D919C91179701961796E7
S1130C709C938E931697CE01DF91CF911F910F9184
S1130C800895FA01AA27283051F1203181F1E8941E
S1130C906F936E7F6E5F7F4F8F4F9F4FAF4FB1E06B
S1130CA03ED0B4E03CD0670F781F891F9A1FA11D66
S1130CB0680F791F8A1F911DA11D6A0F711D811D67
S1130CC0911DA11D20D009F468943F912AE0269F2C
S1130CD011243019305D3193DEF6CF010895462F8B
S1130CE04770405D4193B3E00FD0C9F7F6CF462F6C
S1130CF04F70405D4A3318F0495D31FD40524193D5
S1130D0002D0A9F7EACFB4E0A69597958795779591
S1130D106795BA95C9F700976105710508959B0118
S1130D20AC010A2E06945795479537952795BA95A1
S1130D30C9F7620F731F841F951FA01D08952F927A
S1130D403F924F925F926F927F928F929F92AF9257
S1130D50BF92CF92DF92EF92FF920F931F93CF93A4
S1130D60DF93CDB7DEB7CA1BDB0B0FB6F894DEBF3B
S1130D700FBECDBF09942A88398848885F846E8461
S1130D807D848C849B84AA84B984C884DF80EE80AB
S1130D90FD800C811B81AA81B981CE0FD11D0FB6B4
S1130DA0F894DEBF0FBECDBFED010895F894FFCFD8
S1130DB00101543A25644320483A2564252500441A
S1130DC041544525647C485525647C534E25640074
S9030000FC
