S01000004D6573736F6D61742E73726563CB
S11300000C9434000C9451000C9451000C94510045
S11300100C9451000C9451000C9451000C94510018
S11300200C9451000C9451000C9451000C947302E4
S11300300C9451000C9451000C9451000C945100F8
S11300400C9451000C9451000C94B6040C94E404E8
S11300500C9451000C9451000C9451000C945100D8
S11300600C9451000C94510011241FBECFEFD8E022
S1130070DEBFCDBF11E0A0E0B1E0E6E2F1E102C0F5
S113008005900D92AC35B107D9F721E0ACE5B1E0AC
S113009001C01D92AD3DB207E1F70E9460040C94CB
S11300A091080C9400001F93CF93DF9300D000D0ED
S11300B01F92CDB7DEB7FC019E012F5F3F4F85E055
S11300C0D9011D928A95E9F787B1816087B998B102
S11300D0916098B9BFEF21EE84E0B1502040804098
S11300E0E1F700C0000098B19E7F98B99FEFA0EEA1
S11300F0B0E09150A040B040E1F700C0000098B1DA
S1130100916098B997B19E7F97B925ED2A95F1F73B
S11301100000309965C08FE391E00197F1F700C0CA
S11301200000309B5FC0AFE3B1E01197F1F700C06E
S1130130000010E034C02F5F3F4F293C310518F018
S113014053C020E030E0309BF6CFB0EABA95F1F727
S1130150309B0CC047E050E0491B510921E030E0DE
S113016002C0220F331F4A95E2F7822B20E030E0D1
S113017005C02F5F3F4F293C3105C0F53099F9CFB9
S11301809F5F02C080E090E09830D8F221E030E038
S11301902C0F3D1F210F311DD9018C931F5F15308A
S11301A088F387B1816087B988B1816088B9BFEF6E
S11301B021EE84E0B15020408040E1F700C000000F
S11301C089819A813B812C81890F830F820F9D81C4
S11301D089130EC030838981DB018C9380E009C0D0
S11301E08FEF07C08EEF05C08DEF03C08FEF01C006
S11301F08BEF0F900F900F900F900F90DF91CF9196
S11302001F9108950E945300089588B1886088B9A9
S113021085E08A95F1F7000088B1877F88B9089551
S1130220CF93C82F662321F088B1806288B903C0B8
S113023088B18F7D88B988B18F7E88B98AB1806191
S11302408AB98AB180628AB98AB180648AB98AB16A
S113025080688AB98BB18F778BB98BB18F7B8BB95F
S11302608BB18F7D8BB98BB18F7E8BB9CC231CF472
S11302708BB180688BB9C6FF03C08BB180648BB926
S1130280C5FF03C08BB180628BB9C4FF03C08BB1BF
S113029080618BB90E9405018BB18F778BB98BB1CB
S11302A08F7B8BB98BB18F7D8BB98BB18F7E8BB9E3
S11302B0C3FF03C08BB180688BB9C2FF03C08BB18D
S11302C080648BB9C1FF03C08BB180628BB9C0FF5E
S11302D003C08BB180618BB90E9405018BB1806131
S11302E08BB98BB180628BB98BB180648BB98BB1C4
S11302F080688BB9CF910895882321F088B18062FA
S113030088B903C088B18F7D88B988B1806188B904
S11303108AB18F7E8AB98AB18F7D8AB98AB18F7B7F
S11303208AB98AB18F778AB988B1886088B985E03B
S11303308A95F1F700004C9902C080E001C080E189
S11303404D9980624E9980644F99806898B1977FE7
S113035098B995E09A95F1F7000098B1986098B92A
S113036095E09A95F1F700004C9981604D9982606F
S11303704E9984604F99886098B1977F98B9089591
S113038080E00E947C018823DCF385E18A95F1F703
S1130390000080E00E947C010895CF93C82F0E9442
S11303A0C00160E08C2F0E941001CF91089561116B
S11303B004C080580E94CD01089580540E94CD014C
S11303C0089581E00E94CD010895CF93C82F0E9423
S11303D0C001CA3049F4803410F480E401C080E0E4
S11303E080580E94CD0104C061E08C2F0E9410014E
S11303F0CF910895CF93DF93FC0103C00E94E501E0
S1130400FE01EF01219680818111F8CFDF91CF9118
S11304100895CF93C82F87B1806287B987B180616F
S113042087B987B1886087B98AB180618AB98AB18E
S113043080628AB98AB180648AB98AB180688AB9CB
S11304408FEF99EF0197F1F700C000008BB1806244
S11304508BB98BB180618BB90E9405018FE19EE459
S11304600197F1F700C000000E9405018FEF90E0B2
S11304700197F1F700C000000E9405018FEF90E0A2
S11304800197F1F700C000008BB18F7E8BB90E94F9
S113049005018FEF90E00197F1F700C0000088E2BA
S11304A00E94CD0188E00E94CD010E94E10186E016
S11304B00E94CD018C2F0E94CD01CF910895E1E8D7
S11304C0F0E080818860808388E09DE390938900D8
S11304D080938800808185608083EFE6F0E08081EE
S11304E08260808308951F920F920FB60F92112499
S11304F08F9381E080935E018F910F900FBE0F90D8
S11305001F901895CF93C82F0E94E101CC2329F0A6
S113051085E191E00E94FA015BC09091A70180916E
S1130520C801292F092E000C330B3F939F93282FCA
S1130530082E000C330B3F938F9385E291E09F9339
S11305408F9389EC91E09F938F930E94910589EC9E
S113055091E00E94FA0161E080E00E94D70180915D
S11305605C012DB73EB7285F3F4F0FB6F8943EBFEE
S11305700FBE2DBF882319F023E031E002C028E02C
S113058031E04091020180915D01882319F08DE0F2
S113059091E002C081E191E03F932F931F924F932A
S11305A09F938F9382E391E09F938F9389EC91E0E3
S11305B09F938F930E94910589EC91E00E94FA0128
S11305C08DB79EB70A960FB6F8949EBF0FBE8DBF27
S11305D0CF91089520910001309101019091A701DC
S11305E08091C8013F932F93292F092E000C330BC0
S11305F03F939F93282F082E000C330B3F938F9328
S113060080E491E09F938F9388EA91E09F938F9386
S11306100E94910582E00E94470588EA91E00E94C9
S11306205C0583E00E94470580915F018F5F8093A2
S11306305F018DB79EB70A960FB6F8949EBF0FBEA2
S11306408DBF08950F931F93CF9380E090E00E9495
S11306504408C82F8A3008F0C0E06091C8010C2F0C
S113066010E0C8010196880F991F805090400E94A5
S11306704C086091A701C801880F991F8D5F9F4F97
S11306800E944C0861E06C0F80E090E00E944C08EE
S1130690609100017091010181E090E00E944C089A
S11306A0CF911F910F910895CF92DF92EF92FF9215
S11306B00F931F93CF93DF9380E090E00E94440850
S11306C0D82E81E090E00E9444088B3030F00F2E49
S11306D0F6EFEF2EF02DE80E01C0E12CF12C49C00D
S11306E00F2D10E0C8018D0D911D6AE070E00E948D
S11306F06905EC01DD27CE010196880F991F805012
S113070090400E944408C82ECE01880F991F8D5F27
S11307109F4F0E94440898012E0D311D3F932F9343
S1130720282F082E000C330B3F938F938C2D0C2C09
S1130730000C990B9F93CF9280E491E09F938F9349
S113074028EA31E03F932F930E94910582E00E94B2
S1130750470588EA91E00E945C0583E00E94470512
S1130760F3948DB79EB70A960FB6F8949EBF0FBE4A
S11307708DBF99E09F1508F0B3CFDF91CF911F9102
S11307800F91FF90EF90DF90CF9008950E9429057C
S113079099278436910509F45AC078F48133910578
S11307A059F118F40697D9F0089584339105A9F105
S11307B08136910509F469C008958137910509F4DA
S11307C04FC028F48536910509F455C00895823741
S11307D09105A1F18337910509F460C0089581E082
S11307E08093600180915C01882309F468C01092B1
S11307F05C010E945403089588E09DE3909389006E
S11308008093880081E08093020110928500109209
S1130810840080E00E948202089583E294EF909322
S113082089008093880084E08093020110928500FF
S11308301092840080E00E948202089510925F0169
S11308401092600110925C0185B18E7F85B981E0C0
S11308508093610110925F0180E00E9482020895FA
S11308601092610185B18D7F85B910925D0181E09F
S11308700E948202089585B1826085B981E08093E7
S11308805D0180E00E948202089585B18D7F85B963
S113089010925D0180E00E948202089582E00E942D
S11308A0470580915D01882319F081E591E002C03C
S11308B086E591E00E945C0583E00E944705089567
S11308C08CE00E9409020E94E10187E690E00E9408
S11308D00E050E945F0284B1836084B985B18C7F68
S11308E085B98AB1837F8AB98BB18C608BB97894CE
S11308F081E00E9482020E94C603809160018823E5
S113090081F085B18E7F85B98091000190910101BC
S11309100196909301018093000110925F0110925F
S1130920600180915E01882331F310925E0167EAD1
S113093071E088EC91E00E9402018111DCCF0E94F9
S1130940220380E00E94820280916101882399F24F
S113095080915F01833018F40E94EA02CCCF85B104
S1130960816085B981E080935C01C5CF1F920F92AD
S11309700FB60F9211242F938F939F93EF93FF93AE
S11309808091C0002091C6008C71E0916401EF5FFA
S1130990EF7190916301E91739F0E0936401F0E09D
S11309A0E959FE4F208301C082E090916201892BB6
S11309B080936201FF91EF919F918F912F910F90FE
S11309C00FBE0F901F9018951F920F920FB60F92A3
S11309D011248F939F93EF93FF93909166018091DD
S11309E06501981769F0E0916501EF5FEF71E0939D
S11309F06501F0E0E957FE4F80818093C60005C091
S1130A00E1ECF0E080818F7D8083FF91EF919F91F5
S1130A108F910F900FBE0F901F9018951092660142
S1130A20109265011092640110926301282F392FEE
S1130A3033231CF422E02093C00090789093C500E7
S1130A408093C40088E98093C10086E08093C2004B
S1130A50089590916401809163019817A9F0909191
S1130A6063019F5F9F71E92FF0E0E959FE4F2081F8
S1130A7080916201909363011092620190E0982F3B
S1130A808827820F911D089580E091E008952091B8
S1130A9066012F5F2F71909165012917E1F3E22F11
S1130AA0F0E0E957FE4F808320936601E1ECF0E02B
S1130AB08081806280830895CF93DF93EC0103C02B
S1130AC021960E94470588818111FACFDF91CF9149
S1130AD0089597FB072E16F4009407D077FD09D0EC
S1130AE00E947D0507FC05D03EF4909581959F4FAB
S1130AF00895709561957F4F0895AA1BBB1B51E122
S1130B0007C0AA1FBB1FA617B70710F0A61BB70B79
S1130B10881F991F5A95A9F780959095BC01CD011E
S1130B200895AEE0B0E0E7E9F5E00C9468080D89BB
S1130B301E8986E08C831A8309838FEF9FE79E8347
S1130B408D83AE01475E5F4F6F89788DCE0101962C
S1130B500E94B305EF81F885E00FF11F10822E96F5
S1130B60E4E00C948408ABE0B0E0E9EBF5E00C942D
S1130B705A086C017B018A01FC0117821682838169
S1130B8081FFCCC1CE0101963C01F6019381F701AE
S1130B9093FD859193FF81917F01882309F4BAC164
S1130BA0853239F493FD859193FF81917F018532DC
S1130BB029F4B60190E00E94AA07E7CF912C212CDA
S1130BC0312CFFE1F315D8F08B3279F038F4803210
S1130BD079F08332A1F4232D20611DC08D3261F0A0
S1130BE0803369F4232D216016C0832D8260382E52
S1130BF0E32DE4603E2E2AC0F32DF8601DC037FCBF
S1130C002DC020ED280F2A3040F08E32B9F436FC86
S1130C1081C1232D2064322E19C036FE06C08AE01D
S1130C20989E200D1124922E11C0EAE02E9E200DD4
S1130C301124222EF32DF0623F2E08C08C3621F4AD
S1130C40832D8068382E02C0883641F4F70193FD65
S1130C50859193FF81917F018111B3CF982F9F7D5F
S1130C609554933028F40C5F1F4F9FE399830DC074
S1130C70833631F0833771F0833509F059C021C0D0
S1130C80F801808189830E5F1F4F88248394912CFF
S1130C90530113C02801F2E04F0E511CF801A0804B
S1130CA0B18036FE03C0692D70E002C06FEF7FEFA4
S1130CB0C5010E949F074C018201F32DFF773F2E4F
S1130CC016C0280122E0420E511CF801A080B18018
S1130CD036FE03C0692D70E002C06FEF7FEFC501DF
S1130CE00E9494074C01F32DF0683F2E820133FCDF
S1130CF01BC0822D90E088169906B0F4B60180E2FC
S1130D0090E00E94AA072A94F4CFF50137FC85915C
S1130D1037FE81915F01B60190E00E94AA0721107D
S1130D202A9421E0821A91088114910471F7E8C091
S1130D30843611F0893641F5F80137FE07C0608129
S1130D407181828193810C5F1F4F08C06081718122
S1130D50072E000C880B990B0E5F1F4FF32DFF76A7
S1130D603F2E97FF09C090958095709561957F4FB0
S1130D708F4F9F4FF0683F2E2AE030E0A3010E947E
S1130D80E607882E861845C0853731F4232D2F7E3B
S1130D90B22E2AE030E025C0932D997FB92E8F36EC
S1130DA0C1F018F4883579F0B5C0803719F0883768
S1130DB021F0B0C0E92FE061BE2EB4FE0DC0FB2DC2
S1130DC0F460BF2E09C034FE0AC0292F2660B22E5B
S1130DD006C028E030E005C020E130E002C020E198
S1130DE032E0F801B7FE07C060817181828193818E
S1130DF00C5F1F4F06C06081718180E090E00E5F40
S1130E001F4FA3010E94E607882E8618FB2DFF774B
S1130E103F2E36FE0DC0232D2E7FA22E891458F4AA
S1130E2034FE0BC032FC09C0832D8E7EA82E05C073
S1130E30B82CA32C03C0B82C01C0B92CA4FE0FC03D
S1130E40FE01E80DF11D8081803321F49A2D997EF5
S1130E50A92E09C0A2FE06C0B394B39404C08A2D7F
S1130E60867809F0B394A3FC11C0A0FE06C0B214A6
S1130E7088F4280C922C9B180EC0B21460F4B601AE
S1130E8080E290E00E94AA07B394F7CFB21418F45A
S1130E902B1802C0982C212CA4FE10C0B60180E3AC
S1130EA090E00E94AA07A2FE17C0A1FC03C088E735
S1130EB090E002C088E590E0B6010CC08A2D8678E7
S1130EC059F0A1FE02C08BE201C080E2A7FC8DE2D2
S1130ED0B60190E00E94AA07891438F4B60180E3B1
S1130EE090E00E94AA079A94F7CF8A94F301E80D40
S1130EF0F11D8081B60190E00E94AA078110F5CF10
S1130F00222009F442CEB60180E290E00E94AA07B2
S1130F102A94F6CFF6018681978102C08FEF9FEF66
S1130F202B96E2E10C947608FC0105906150704028
S1130F300110D8F7809590958E0F9F1F0895FC019E
S1130F406150704001900110D8F7809590958E0FF4
S1130F509F1F08950F931F93CF93DF93FB0123816A
S1130F6021FD03C08FEF9FEF2CC022FF16C04681E6
S1130F705781248135814217530744F4A081B181FC
S1130F809D012F5F3F4F318320838C9326813781CE
S1130F902F5F3F4F3783268314C08B01EC01FB0185
S1130FA00084F185E02D0995892BE1F6D801169688
S1130FB08D919C911797019617969C938E931697F3
S1130FC0CE01DF91CF911F910F910895FA01AA27C5
S1130FD0283051F1203181F1E8946F936E7F6E5F78
S1130FE07F4F8F4F9F4FAF4FB1E03ED0B4E03CD026
S1130FF0670F781F891F9A1FA11D680F791F8A1F09
S1131000911DA11D6A0F711D811D911DA11D20D06F
S113101009F468943F912AE0269F11243019305D29
S11310203193DEF6CF010895462F4770405D41931A
S1131030B3E00FD0C9F7F6CF462F4F70405D4A3367
S113104018F0495D31FD4052419302D0A9F7EACF2F
S1131050B4E0A6959795879577956795BA95C9F75E
S113106000976105710508959B01AC010A2E069451
S11310705795479537952795BA95C9F7620F731F0A
S1131080841F951FA01D0895F999FECF92BD81BDBF
S1131090F89A992780B50895262FF999FECF1FBA9B
S11310A092BD81BD20BD0FB6F894FA9AF99A0FBE8D
S11310B0019608952F923F924F925F926F927F9282
S11310C08F929F92AF92BF92CF92DF92EF92FF9254
S11310D00F931F93CF93DF93CDB7DEB7CA1BDB0B00
S11310E00FB6F894DEBF0FBECDBF09942A883988A5
S11310F048885F846E847D848C849B84AA84B984AC
S1131100C884DF80EE80FD800C811B81AA81B981B7
S1131110CE0FD11D0FB6F894DEBF0FBECDBFED01CB
S10911200895F894FFCFCE
S1131126010001455252210020202020004F4E206C
S1131136004F4646002A2A4D4520676573746F7032
S113114670742A2A00543A25644320483A256425B3
S11311562500463A257320493A25647320257300F1
S11311664441544525647C485525647C534E256486
S10F11760046414E310046414E3000005E
S9030000FC
