S00D000055453030502E73726563CD
S11300000C9434000C9448020C94F5010C945100A7
S11300100C9451000C9451000C9451000C94510018
S11300200C9451000C9451000C9451000C94510008
S11300300C9451000C9451000C9451000C945100F8
S11300400C9451000C9451000C9451000C945100E8
S11300500C9451000C942A010C9451000C945100FE
S11300600C9451000C94510011241FBECFEFD8E022
S1130070DEBFCDBF11E0A0E0B1E0E4E2F7E002C0F2
S113008005900D92A432B107D9F721E0A4E2B1E0C2
S113009001C01D92A832B207E1F70E94B5010C9489
S11300A090030C9400008BB180648BB900008BB179
S11300B08F7B8BB90895CF93DF93D82F662321F0DC
S11300C08BB180618BB903C08BB18F7E8BB98BB13F
S11300D08F7D8BB98AB18F608AB9CBB1C07F8D2FE8
S11300E082958F708C2B8BB90E945300DF70DC2BB0
S11300F0DBB90E945300CF60CBB9DF91CF91089553
S1130100882321F08BB180618BB903C08BB18F7EC2
S11301108BB98BB180628BB98AB1807F8AB98BB17C
S113012080648BB9000099B19295907F8BB18F7BDD
S11301308BB900008BB180648BB9000089B18F70DA
S11301402BB12F7B2BB9892B089580E00E9480006E
S11301508823DCF300C000C080E00E948000089582
S1130160CF93C82F0E94A50060E08C2F0E945B00F3
S1130170CF910895611104C080580E94B000089581
S113018080540E94B000089581E00E94B000089558
S1130190CF93C82F0E94A500CA3049F4803410F4CC
S11301A080E401C080E080580E94B00004C061E097
S11301B08C2F0E945B00CF910895CF93DF93FC01B5
S11301C003C00E94C800FE01EF01219680818111C5
S11301D0F8CFDF91CF910895CF93C82F8AB18F675D
S11301E08AB98FE99FE00197F1F700C000008BB155
S11301F082608BB98BB181608BB90E94530081EE10
S113020094E00197F1F700C000000E94530095E1CB
S11302109A95F1F700000E94530085E18A95F1F761
S113022000008BB18E7F8BB90E94530095E19A95A3
S1130230F1F7000088E20E94B00088E00E94B0005C
S11302400E94C40086E00E94B0008C2F0E94B0007F
S1130250CF9108951F920F920FB60F9211242F93EE
S11302603F934F935F936F937F938F939F93AF933A
S1130270BF93EF93FF93609178007091790080E0D1
S113028090E00E9471026093240170932501809391
S1130290260190932701EAE7F0E08081806480835F
S11302A0FF91EF91BF91AF919F918F917F916F914A
S11302B05F914F913F912F910F900FBE0F901F9020
S11302C01895ECE7F0E08081806480838081816010
S11302D08083EAE7F0E0808187688083808180689A
S11302E08083808188608083808180648083089596
S11302F0F89421E009C06091240170912501809156
S113030026019091270120E02111F5CF78940895DA
S1130310109201011092000160E080E00E94BA0096
S113032082E091E00E94DD0061E080E00E94BA007A
S11303302FEF83ED90E3215080409040E1F700C01F
S1130340000082E091E00E94DD002FEF87EE93E051
S1130350215080409040E1F700C0000085B18E7FBD
S113036085B985B1826085B908958DB383608DBBED
S11303700E9461018BB18C608BB984B1836084B9B4
S1130380789485B1816085B98CE00E94EC0083E1AA
S113039091E00E94DD0061E080E00E94BA0083E108
S11303A091E00E94DD00809100019091010101978C
S11303B0D1F70E94780122E539E44DE95BE30E941C
S11303C0D20220E030E040EC5FE30E946C0288231C
S11303D054F70E9488012FEF87EA91E6215080406C
S11303E09040E1F700C00000DECF1F920F920FB6DD
S11303F00F9211242F933F934F935F936F937F93A7
S11304008F939F93AF93BF93EF93FF930E948801C1
S1130410FF91EF91BF91AF919F918F917F916F91D8
S11304205F914F913F912F910F900FBE0F901F90AE
S1130430189581E090E0909301018093000160E0C1
S113044080E00E94BA0083E191E00E94DD0061E057
S113045080E00E94BA002FEF83ED90E321508040AA
S11304609040E1F700C0000083E191E00E94DD00CC
S11304702FEF87EE93E0215080409040E1F700C0D9
S1130480000085B18D7F85B985B1816085B90895F6
S11304901F920F920FB60F9211242F933F934F93F5
S11304A05F936F937F938F939F93AF93BF93EF93D8
S11304B0FF930E941902FF91EF91BF91AF919F9119
S11304C08F917F916F915F914F913F912F910F90F9
S11304D00FBE0F901F9018950E94AE0208F481E0A1
S11304E00895E89409C097FB3EF490958095709523
S11304F061957F4F8F4F9F4F9923A9F0F92F96E96C
S1130500BB279395F695879577956795B795F111E0
S1130510F8CFFAF4BB0F11F460FF1BC06F5F7F4F7D
S11305208F4F9F4F16C0882311F096E911C077238F
S113053021F09EE8872F762F05C0662371F096E898
S1130540862F70E060E02AF09A95660F771F881F67
S1130550DAF7880F9695879597F90895990F00080B
S1130560550FAA0BE0E8FEEF16161706E807F90781
S1130570C0F012161306E407F50798F0621B730B1C
S1130580840B950B39F40A2661F0232B242B252B9D
S113059021F408950A2609F4A140A6958FEF811D40
S11305A0811D08950E94E5020C9456030E9448039D
S11305B038F00E944F0320F0952311F00C943F0370
S11305C00C94450311240C948A030E94670370F36E
S11305D0959FC1F3950F50E0551F629FF001729FE4
S11305E0BB27F00DB11D639FAA27F00DB11DAA1FF3
S11305F0649F6627B00DA11D661F829F2227B00D40
S1130600A11D621F739FB00DA11D621F839FA00DCA
S1130610611D221F749F3327A00D611D231F849F1A
S1130620600D211D822F762F6A2F11249F57504071
S11306309AF0F1F088234AF0EE0FFF1FBB1F661FEC
S1130640771F881F91505040A9F79E3F510580F0B5
S11306500C943F030C948A035F3FE4F3983ED4F375
S1130660869577956795B795F795E7959F5FC1F759
S1130670FE2B880F911D9695879597F9089597F904
S11306809F6780E870E060E008959FEF80EC089534
S113069000240A941616170618060906089500245D
S11306A00A9412161306140605060895092E0394D7
S11306B0000C11F4882352F0BB0F40F4BF2B11F44B
S11306C060FF04C06F5F7F4F8F4F9F4F089557FDAA
S11306D09058440F551F59F05F3F71F04795880FAC
S11306E097FB991F61F09F3F79F087950895121643
S11306F013061406551FF2CF4695F1DF08C01616EF
S113070017061806991FF1CF86957105610508949F
S11307100895E894BB2766277727CB0197F90895B6
S1070720F894FFCF77
S113072401007C7C7C7C7C7C7C7C7C7C7C7C7C7CF8
S11307347C7C007C2D2D2D2D2D2D2D2D2D2D2D2D21
S10707442D2D7C00D7
S9030000FC
